:1000000000800010213F0000513F0000533F0000DE
:10001000553F0000573F0000593F0000000000001E
:10002000000000000000000000000000553E00003D
:100030005D3F000000000000BF3E0000F53E0000F4
:10004000633F0000633F0000633F0000633F000028
:10005000633F0000633F0000633F0000633F000018
:10006000633F0000633F0000633F0000633F000008
:10007000633F0000633F0000633F0000633F0000F8
:10008000633F0000633F0000633F0000633F0000E8
:10009000633F0000633F0000633F0000633F0000D8
:1000A000633F0000633F0000633F0000633F0000C8
:1000B000633F0000633F0000633F0000633F0000B8
:1000C000633F0000633F0000633F000010B5054C34
:1000D000237833B9044B13B10448AFF300800123F4
:1000E000237010BD2003001000000000D8AB0000FA
:1000F0000C4B43B10C4810B50C49AFF300800C48D1
:10010000036823B910BD0A48036833B97047094B27
:10011000002BF7D0BDE810401847064B002BF5D058
:10012000184700BF00000000D8AB000024030010F7
:100130002003001000000000704710B5044603F0D3
:100140004EFD204610BD00002DE9F3410024254D51
:1001500090212A4602230094234803F035FA2B7895
:100160006878002500EB0320001104F095F94FF0AA
:10017000765104F0E5F906461C4FE159304604F08B
:100180009BFB48B107EB0408D8F80810304604F090
:100190007FFB08B1D8F80C500834282CEDD100F0C2
:1001A000D5FD2946124802F0E9FD00F0E5FD1148B1
:1001B00000F0D6F9304604F039F802460B460D48F7
:1001C0000D4903F047F90D49284604F0B9F904F048
:1001D0002DF802460B460748094902B0BDE8F04138
:1001E00003F038B9B41400103C030010CC00001028
:1001F00084140010781300101CA100000000C842F5
:100200002BA1000013B54FF4805200212B4804F0BD
:1002100038FF0023294A2A48195C99540133302BAE
:10022000FAD11D222748114600F0D2FB08280446C7
:1002300013D12549254803F00DF91D222148114607
:1002400000F0E2FB1D221F48114600F0CEFB2049C2
:10025000044602461D4803F0FDF823461D221D49B1
:100260001A4803F0F7F81D221648114600F0CCFB9F
:100270004FF480534FF4F0221049124800F0D1FBA4
:100280004FF48054019000944FF4F0230B4A12492C
:100290000E4803F0DFF823464FF4F02207490948DF
:1002A00000F0CFFB0D4B0E4A0E49002808BF1A463E
:1002B000064802B0BDE8104003F0CCB84803001077
:1002C000CC0000104813001075A100005814001055
:1002D0008CA10000A7A10000BCA1000072A1000039
:1002E0003CA1000003A20000C36810B504460BB196
:1002F0009B689847204610BD70B50546074B0646DB
:1003000045F80C3B45B100F12C04AC4204D0103C44
:100310002046FFF7E9FFF8E7304670BD80A70000F0
:1003200010B50446FFF7E8FF204603F058FC2046CE
:1003300010BD000010B50446084B443040F8443C62
:10034000203340F8143C03F04FFD04F1300003F07B
:100350006FF82046FFF7D0FF204610BD1CA6000016
:10036000A0F13000E6E700BF38B505460446064B6D
:1003700045F8183B02F0A2FE2846FFF7B5FF2046DD
:1003800003F0FCF9204638BD8CA6000010B50446E9
:10039000FFF7EAFF204603F022FC204610BD10B50F
:1003A0000446FFF7C7FF204603F019FC204610BDA6
:1003B000A0F13000F3E700007FB54FF47A71274ACF
:1003C000274B00261360274B274D1B68274CB3FB98
:1003D000F1F32846D3622649264A03F0A9F82246BB
:1003E0002549284603F0D2FB244B254D0293073BB9
:1003F0000193013B009303960233224A2249284687
:1004000000F0BEF82846214D2246214903F0BEFBEC
:10041000284603F095F91F4B22466E621E49284676
:100420002B6003F0B3FB00F091FC1C491C4802F068
:10043000EBFC00F0A1FC4FF416531A4D00931A4A3E
:1004400033461A49284602F0FDFD2246284618493F
:1004500004B0BDE8704003F099BB00BF4813001022
:10046000F11FFF1F340100103C030010C8000010F2
:1004700000C0092001C009203901000017C009206F
:100480007813001018C0092019C009208C1400101E
:10049000B50400008CA600006903000044C00920D8
:1004A000841400102814001003C0092002C0092081
:1004B0003503000010B50446044B40F8443B02F0FD
:1004C000BDFE204602F0B4FF204610BD28A2000069
:1004D00010B50446FFF7EEFF204603F080FB2046F0
:1004E00010BD0368DB69184703685B691847036838
:1004F0009B6A1847704770474FF0FF307047000005
:10050000F8B504460F46124D00F144060911304675
:1005100002F030FF284603F0E7F9E36B226B284630
:100520001A6003F0E1F9A36B226B39461A6030467A
:1005300002F020FF284603F0D7F9E36B226B284630
:100540001A6003F0D1F9A36B226B1A60F8BD00BFEB
:10055000ACC52738426A83691360FFF7D1BF00003A
:1005600010B501210446FFF7F5FF044803F0BCF97C
:100570000023C4F8A830C4F8AC3010BD45F5D63A15
:100580002DE9F04104462546884617468EB00021E5
:100590001E4602F02FFF304B182245F8143B002175
:1005A000284604F06EFD2846414604F12C0500F073
:1005B000B1FA18220021284604F063FD2846394686
:1005C00000F0A8FA4FF0FF330C930B930A930993B2
:1005D000089307930693059304930393029301935F
:1005E000169B31460093149A159B04F1440002F0C7
:1005F0004FFE9DF85C30226B84F8A430A36B174843
:100600001A60A269636A03251A6003F06DF9144E3B
:1006100003212046FFF774FF304603F065F9013DE2
:10062000F6D102212046FFF76BFF0E4803F05CF97C
:1006300020462821FFF78EFF20460C21FFF78AFF76
:1006400006212046FFF786FF2046FFF789FF204658
:100650000EB0BDE8F08100BF28A200008FC2753C3B
:1006600045F5D63AACC52738026A83691360FFF7AF
:1006700047BF90F8A430012B10D0032B14D1032ACC
:100680000CD8DFE802F00E02050801F1C000704747
:1006900001F19400704701F1D4007047282000FB5D
:1006A000021101F180007047901C01EB801070472F
:1006B00038B504461D46FFF7DCFF01462046FFF72C
:1006C00049FF29462046BDE83840FFF7CDBF90F8E6
:1006D000A430023B012B8CBF10201420704790F8EF
:1006E000A430032B0CBF0420022070470A2938B520
:1006F00004460D4610D10023D0F8AC20C0F8A83035
:100700000132C0F8AC20FFF7EAFF824202DB00238F
:10071000C4F8AC30284638BD0B46D0F8AC20D0F831
:10072000A810FFF7C5FFD4F8A82020460132C4F86E
:10073000A820FFF7CCFF8242ECDB0023D4F8AC20EA
:10074000C4F8A8300132C4F8AC202046DBE7000032
:100750004FF4165313B5084C0093084A0023084978
:10076000204602F06FFC2046064A074902B0BDE869
:10077000104003F00BBA00BFB814001003C00920EA
:1007800002C00920C80000103503000003681847A4
:1007900008B10B6803607047704738B5CB680446F2
:1007A0000D460BB15B689847EB682046E36038BDA7
:1007B0006023384A2DE97043537000240125A0239B
:1007C0008AB015709370902100940323324802F090
:1007D000DBFE2B462246902100942F4802F0D4FEE7
:1007E000FFF710FD2D492E4802F034FE2D492C480C
:1007F00002F030FE2C492A4802F02CFE29492848F4
:1008000002F028FE294C2A4E2A4D54F8080C03F019
:100810000DFD804654F8040C894603F007FD0834AA
:10082000CDE9000142464B4631461D4802F012FE1A
:10083000AC42EAD11B491A4802F00CFE1E4B2BBBFE
:1008400002A906A80593FFF7A8FF1C48FFF74CFD77
:1008500006A91A48FFF7A1FF19491A4802F01AFC25
:1008600006A8FFF741FD02A8FFF73EFD164B1C68E6
:1008700000F06CFA2146154802F0AAFA4FF08044C5
:1008800000F07AFA204603F02FF8FBE70293104BB2
:10089000D6E700BF20150010141500107CA2000040
:1008A0003416001098A20000B4A2000008800700CF
:1008B000D1A2000038800700490100008016001016
:1008C000C0C62D0068160010FC0000106016001055
:1008D00070A200007FB54FF47A71274A274B00269B
:1008E0001360274B274D1B68274CB3FBF1F32846B9
:1008F000D3622649264A02F01BFE22462549284695
:1009000003F044F9244B254D0293073B0193013B2F
:10091000009303960233224A22492846FFF730FE0D
:100920002846214D2246214903F030F9284602F09D
:1009300007FF1F4B22466E621E4928462B6003F0BC
:1009400025F900F003FA1C491C4802F05DFA00F09A
:1009500013FA4FF416531A4D00931A4A33461A49A4
:10096000284602F06FFB22462846184904B0BDE82D
:10097000704003F00BB900BF24150010F11FFF1FDA
:100980003401001014150010C800001000C0092028
:1009900001C009203901000017C0092054150010BA
:1009A00018C0092019C0092068160010B5040000FD
:1009B0008CA600006903000044C0092060160010E6
:1009C0000416001003C0092002C0092035030000EE
:1009D000352310B5044643608160C260036800F1AE
:1009E000180104309847A06910BD342310B504469F
:1009F0004360C36A8160C260036100F1180103684B
:100A000004309847A06910BD322310B504464360F6
:100A10008160C260036800F1180104309847A06942
:100A200010BD10B5044633202361E36A6060E160C5
:100A30006361201DA260236804F118019847A06932
:100A400010BD10B504463820E16060602361201DB0
:100A5000A260236804F118019847A06910BD000046
:100A60000748084A08B5121A002104F00AFB03F0EF
:100A700046F804F03BFA03F049F803F089F800BFA8
:100A800020030010E4330010022801DD02F0EABF69
:100A90000120704708B5012003F07AF808B5FFF788
:100AA000F9FF70B50E460446154601F083FC013689
:100AB00009D02046002101F097FC29462046BDE8D8
:100AC000704001F08EBC70BD38B504460D464368D9
:100AD0005AB1C26820461360012101F085FC294605
:100AE0002046BDE8384001F07CBC0269F2E70322F1
:100AF000FFF7D7BF70B50E460446154601F05AFC05
:100B0000013606D02A462046BDE870400221FFF794
:100B1000DBBF70BD0022FFF7EDBF0000004870474B
:100B2000F4A20000014800F00CB800BFF4A20000DD
:100B300038B504460D4603681B68984763681D6016
:100B400038BD036870B5DB680446984763685A6827
:100B500023681AB99B68BDE8704018475B68156840
:100B600098476368281A00285A6807DC916859601A
:100B70001B68002BEAD050689847E7E723681068A5
:100B80001B69BDE870401847F8B506460C461F467D
:100B9000154600F0DBF80021706884E8A000436887
:100BA00053B9A36079B9336844601B6928469847F4
:100BB000BDE8F84000F0E0B81A68AA1A002AF0DB95
:100BC00019469B68ECE78C60F2E738B505460C46A1
:100BD00000F0BCF86A685368A3420ED19B6853606A
:100BE0002A682BB993689847BDE8384000F0C4B82C
:100BF000126918689047F7E71346002BF4D09A68FB
:100C00009442F9D1A2689A60EEE703685B681847DE
:100C100010B5044601300DD110BD9C4209D12046CB
:100C2000896802F03BF92046BDE81040022102F03D
:100C30004EB90C310B685A1CEFD10248BDE8104088
:100C400000F0CDB841A30000884208B508D0431C8D
:100C500006D0013106D0044800F0C1F84FF0FF3152
:100C6000084608BD0146FBE710A300000B685A1CAC
:100C700001D118467047834201D1486870470C3152
:100C8000F4E70000421C10B5044607D0FFF7EEFF62
:100C9000431C044602D1024800F0A1F8204610BDD2
:100CA00021A3000000B599B000F050F8174968463C
:100CB000FFF730FF164906A8FFF72CFF15490CA8CF
:100CC000FFF728FF144912A8FFF724FF019A039B9E
:100CD00096201A60079A0A9B1A600D9A109B1A6058
:100CE000139A159B1A6002F00BFE019A049B962042
:100CF0001A60079A099B1A600D9A0F9B1A60139A43
:100D0000169B1A6002F0FCFDE0E700BF32C009202C
:100D100034C0092035C0092037C0092000F04CB884
:100D200008B500F049F838B100F04EF830B900F0DD
:100D300043F80028FBD108BD4FF0FF3008BDEFF3AA
:100D40001080C04300F001007047000008B5FFF7B5
:100D5000F6FF72B6064B1A6822B980F00100054A08
:100D6000C0B210701A681A6801321A6008BD00BF5C
:100D70009C1600109816001008B5074B1A6852B15F
:100D8000FFF7DDFF1A68013A1A601B681BB9034BB5
:100D90001B7803B962B608BD9C16001098160010A7
:100DA00030B585B06D46182420462946ABBE0446B2
:100DB000204605B030BD0000024B186800F001006D
:100DC000704700BFF0ED00E037B540F2051401AD0B
:100DD00020462946ABBE0446204603B030BD0FB4C2
:100DE000012008B502F0D4FE01F00EBB08B5024C9C
:100DF00023689847FCE700BF0001001008B50B48C6
:100E000000F09AFD0A4B18600A4800F095FD0A4B65
:100E100018600A4800F090FD094B186004F066F86D
:100E2000BDE808400021084602F070BEA0A3000003
:100E30004C2C00109CA30000A816001098A30000E2
:100E4000A0160010FFF7D2BF10B5044600F0D4FC86
:100E50002146BDE8104002460148FFF7C0BF00BF71
:100E600060A3000002F098BF0B4AF0B4C2F18053B7
:100E700003F50043B3F5806F194628BF4FF4806136
:100E8000064F074D5B1A074C07489E183A602E60C4
:100E900023600160F0BC7047E8330010682900103F
:100EA000B016001064290010AC16001000F028FEE7
:100EB000FFF7DAFF0348002100F0C6FD00F01EFC3A
:100EC000FEE7000004010010024B4FF0FF311868EC
:100ED00000F050BDA8160010014B186800F072BD5C
:100EE000A816001030B502788C78013A4368D2B267
:100EF00013B19D78A54207D2022A4B60416006D803
:100F000003B19960886030BD18465B68F0E7002344
:100F10008B6030BD436802785968013A022A41600B
:100F20004FF0000205D809B188605A609A601846EF
:100F300070475A60FBE70000034B5A68426000228A
:100F400058608260704700BF40330010104B10B5EE
:100F5000DA688AB19A8A8A42DC680CD3C460D860A5
:100F6000C468036104B12061521A92B28282998AE4
:100F70008A1A9A8210BD3CB900248A1AC460D860CB
:100F800003619A82848210BDA38A1A442346E2E751
:100F9000583300102DE9F041174DEB6853B100268E
:100FA000AB8A164F013BDFF85880AB82AA8A0AB998
:100FB000EC680CB9BDE8F081A36833B16168596091
:100FC000616809B18B606260A66021463846FFF710
:100FD00089FFA38AAB826378042B01BFD8F8003065
:100FE000E28A9B18A38201236370E368EB600BB174
:100FF0001D61E6602661D9E75833001040330010C8
:10100000D433001083682BB142685A6042685AB1E9
:1010100093607047054B5A68904202D142685A600B
:1010200070471346002AF6D1704700BF40330010C6
:1010300010B5846801462CB94378012B0DD1074CBB
:1010400003E0A4682378002BFBD00846FFF7DAFF03
:101050002046BDE81040FFF745BF10BD40330010EB
:10106000036910B563B1C268DA60C2684AB1998A8F
:10107000848A2144998213610023C36000230361A1
:1010800010BD9A82FAE7000070B4114BDD78EFF3DF
:101090001086EFF3108272B69A78954211D9013218
:1010A0009A701A78541CA54208BF00241C7006B917
:1010B00062B6954207D970BC03EBC20358609960D1
:1010C0007047002EF4D070BC0220FFF7BDBE00BFF9
:1010D000C42B0010054B1B7823B94FF08052044BF2
:1010E0001A6070470122034B1A70704704270010E2
:1010F00004ED00E00527001038B51A4B1A4C1868AB
:1011000001234370FFF718FF6578A3783BB91748B0
:101110006570FFF7FFFEBDE8384000F0CBBD04EB83
:10112000C503586802789AB9198900F00BFAE37878
:1011300001359D4208BF0025EFF31083EFF31082C5
:1011400072B6A278013AA270002BDED162B6DCE75B
:10115000012A03D1996800F083F9E8E701F006F964
:10116000E5E700BF8C330010C42B001040330010A3
:10117000084B4FF0FF301A68074B1A6000225A6084
:10118000072243F8042C054A136843F07F43136099
:10119000704700BFC0A3000014E000E020ED00E0B5
:1011A0007047000008B50B4B186801234370FFF728
:1011B000C3FE00F0FDF9084A136801331360FFF71E
:1011C000E9FE00F0FFFC0548FFF7A4FEBDE808407B
:1011D00000F070BD8C330010D43300104033001089
:1011E000064B1A68136BD26A934203D81A68044BF1
:1011F0009A4202D00120FFF727BE70478C330010BF
:10120000A52E5AE2F0B54FF080764FF0000E836ABB
:10121000056B9B0802BF1E4B1B889B0805EB8302D6
:10122000540748BF043A02E94200A2F14004A2F187
:101230004406A2F10C0746F804EFBE42FBD1C66992
:1012400042F8206C41631249C4620968C90017D58D
:10125000112B15D96FF00701103B5B084B43A3F12D
:1012600038010A444FF0CC30214691420BD108336B
:101270001C44231F9D423CBF4FF0CC3344F8043C38
:10128000044B2B60F0BD41F8040C41F8080DECE76D
:10129000A8A30000A52E5AE2C36A19627047C36A68
:1012A00019625A627047002ABBBF22F0004207321F
:1012B000033222F00702A8BF22F0030210B5B4BF28
:1012C00010230C2392B1D4188C420FD8014403444C
:1012D000544241600360826021449818814202D3E5
:1012E00000510346F9E70020186010BD012010BD31
:1012F000EFF3108372B6026803F001030AB11168BC
:10130000016003B962B61046704781420DD343684D
:1013100099420AD2EFF3108372B602680A60016044
:1013200013F0010003D162B670470120704700201E
:1013300070470123037000231039890843708370BC
:101340004360038143818381C181704770B5858982
:1013500004461646002D38D043891A1D50F8222025
:1013600001330A60C2899BB29A42438104BF0023C1
:1013700043814368F3B14378022B1BD1FFF7CAFDC9
:1013800005460021FFF788FF2389E9691A1D44F803
:1013900022100133E2899BB29A42238108BF0023C5
:1013A000284608BF2381FFF75BFE284600F09CFC1F
:1013B000002070BDEFF31080EFF3108372B6013D93
:1013C000A5810028F4D162B670BD4AB14268094BCC
:1013D00042B11968FFF786FD0821304600F0A6FCEF
:1013E000012070BD1B6843605A6098600123437000
:1013F000F2E700BF8C330010C2898089101A704751
:1014000008B5FFF741FEBDE80840FFF763BE8389DA
:1014100010B504460BB34389043350F823300B60F6
:101420004378022B04D10021FFF72EFEFFF752FE76
:10143000EFF31083EFF3108272B6A289013AA28112
:1014400003B962B66389E28901339BB29A42638130
:1014500001D100236381042010BD184610BD000097
:10146000436870B504460E46002B4BD04578022DDC
:1014700020D0032D0AD0012D61D1FFF74BFD04468A
:1014800032461021FFF70BFF65700EE00846FFF7AC
:101490002FFF0546002852D02046FFF73BFD294686
:1014A0000446FFF7F9FE012363702046FFF7D8FDDD
:1014B000214622E0FFF72EFD05460021FFF7ECFE56
:1014C0002389E9691A1D44F82210EFF31082EFF323
:1014D000108172B6A1890131A18102B962B6E28997
:1014E00001339BB29A42238104BF0023238101234D
:1014F00028466B70FFF7B4FD2946BDE870401048E0
:10150000FFF7F0BC8089E189884213D223891A1D34
:1015100044F82260EFF31082EFF3108572B60130C9
:10152000A08102B962B601339BB2994208BF002381
:10153000238170BD0320BDE87040FFF785BC70BDFE
:101540004033001010B5038B42781943062A044635
:101550000183438B15D133EA010219D121EA03013A
:1015600021832046FFF77CFD012320466370628BB8
:101570000821FFF794FE2146BDE810400548FFF71B
:10158000B1BC052A04D111EA030201D04283E5E788
:1015900010BD00BF403300100022034B1A60034A05
:1015A0001268DA80704700BF78330010A4A30000EF
:1015B00008B50E4B5A680E4B196891420D4905D07B
:1015C0001A60DA880868013A02449A8098880A8882
:1015D00090420AD1002205481A60FFF79BFCBDE843
:1015E000084001460148FFF77DBC08BD40330010AC
:1015F00078330010D433001030B500240A4A136841
:1016000043B90360816013B19D68691A996044B160
:10161000206030BD9D68A942F3D31C46491B1B685E
:10162000EEE7106030BD00BF88330010C0B1431C2E
:1016300011D00C4B984211D84FF47A710A4B1B68A9
:101640005A1E01FB0020B0FBF3F34FF6FE708342FD
:1016500006D898B270474FF6FF7070474FF6FE708D
:10166000704700BF00093D005CA3000038B183074C
:1016700004D10378002B18BF00207047002070476A
:10168000B0B50E4D00AF2878A8B90D4C236893F87B
:10169000241000F06DFB2368DA78FF2A03D1DA6AA0
:1016A000203282F3098862680AB984E80C0000F0ED
:1016B00017FD01232B700020B0BD00BF8533001043
:1016C0008C330010014B1878704700BF8533001031
:1016D00010B5EFF3108434B9EFF305841CB9EFF3C0
:1016E0001484E40702D4034B187810BDDFF808C057
:1016F00000DF10BD85330010C516000090B589B01D
:1017000000AFEFF31083002B37D1EFF30583002BED
:1017100033D1FFF7DDFF28B9194C246814B1646890
:1017200004B1A047EFF3148404F00304022C18D092
:10173000032C1CD0012C1ED007F1200484F309884F
:10174000104C2478E40710D5022484F31488BFF3E6
:101750004F8FBFF36F8FDFF830C000DF2437BD46F7
:1017600090BD084C2478E407F5D40324EDE7054C3C
:101770002478E407EFD5FF20F0E78220EEE700BFF2
:10178000743300108AA300008116000070B50B4668
:101790001646024610B90024204670BD0068002895
:1017A000F9D0B2F90440E51CADB2062DF3D8D168EA
:1017B000C1B11269043444EA012100F017FB00288A
:1017C000E9D00A4B013853F82040094AE36A5A63CA
:1017D000084B1B6843B19B6833B13146E0789847AA
:1017E000E063D9E70A46E5E7E663D5E7882B001012
:1017F000951900007433001008B500F0B1FA18B163
:10180000024B013853F8200008BD00BF882B0010A0
:1018100010B5FFF72BFF044670B1084B1B681BB1D6
:10182000DB680BB1C06B9847E07800F035FBFF2810
:101830000CBF8120002010BD802010BD743300102B
:1018400008B528B1FFF7F2FE00F08CFD402008BD7E
:1018500008BD000010B5EFF3108434B9EFF3058430
:101860001CB9DFF80CC000DF10BD822010BD0000E5
:1018700041180000830705D138B1436901691B682D
:101880001846704700231946FAE70346FBE70000B5
:1018900010B504460846DFF80CC000DF84E80300FA
:1018A000204610BD7518000010B548B1046824B179
:1018B000237823B9204600F059FC204610BD0020B3
:1018C00010BD70B510F0030405460E4611D180B16D
:1018D0000378032B0DD10846FFF7A8FE01462846E2
:1018E00000F012FD012806D1002E14BFC120812076
:1018F00070BD802070BD204670BD820708B50AD13A
:1019000048B10378032B06D100F08EFCFF280CBFF2
:101910008120002008BD802008BD10B510F0030410
:1019200007D130B10378032B03D100F027FC204608
:1019300010BD802010BD000070B50546EFF3108487
:1019400094B9EFF305867EB9EFF31484E40706D467
:10195000064C24781CB9BDE87040FFF7A5BF2846A7
:10196000DFF80CC000DF70BD002070BD85330010B3
:10197000A918000010B5EFF3108434B9EFF3058413
:101980001CB9DFF80CC000DF10BD822010BD0000C4
:10199000C3180000084808B54FF0FF310068FFF792
:1019A000E9FFDFF818C000DF0446FFF75BFA2046C6
:1019B000DFF80CC000DFFEE780330010F9170000ED
:1019C0001118000010B5EFF3108434B9EFF305845B
:1019D0001CB9DFF80CC000DF10BD822010BD000074
:1019E000FB1800002DE9F04180460F461646EFF344
:1019F000108404BBEFF30583D3B9EFF31483DB0743
:101A000006D40E4B1B781BB9BDE8F041FFF7BEBEF4
:101A10000B4D4FF0FF312868FFF7ACFF40463946C9
:101A20003246DFF820C000DF04462868FFF7CAFF0F
:101A30002046BDE8F0810024FAE700BF853300109E
:101A4000803300108D1700000022FFF7CBBF00008D
:101A500010B5EFF3108434B9EFF305841CB9DFF847
:101A60000CC000DF10BD822010BD00001B1900005B
:101A700010B5044660B1016851B1406848B10378BF
:101A800033B90431890089B2FFF753FC606810BD97
:101A9000002010BD38B5114C23780BB900F0A6FA20
:101AA000FF220F4B25781B689A708DB929460D4887
:101AB000FFF7DEFF0C4B2A46186029460B48FFF75C
:101AC00065FE0B4B18600B48FFF736FF0A4B18609A
:101AD000012300202370094B187038BD8433001097
:101AE0008C33001090A30000482C0010ACA3000021
:101AF0003C330010C4A30000803300108533001075
:101B000010B5EFF3108474B9EFF305845CB9EFF30B
:101B10001484E40703D4BDE81040FFF7BBBFDFF82F
:101B20000CC000DF10BD822010BD0000951A00001F
:101B30002DE9FF410C46804618B30378012B25D1CF
:101B40000846FFF773FD02A902464046FFF7FEFB79
:101B5000012811D10020002C0246034618BF402066
:101B6000029904460D4616461F462046294632462F
:101B70003B4604B0BDE8F081002002460346102039
:101B8000EEE78024054606460746EEE7002580245A
:101B90002E462F46E9E770B50E461446054660B15D
:101BA0005AB90378012B08D1FFF726FC38B1284633
:101BB0003146FFF725FC204670BD802070BD812096
:101BC00070BD0000F8B5114E34682CB1A368104FF9
:101BD000013BA360A26802B1F8BD256821463868C0
:101BE0003560FFF7D8FF10B10420FFF72DF96379B6
:101BF000012B07D1E1682046FFF7FEFC002DEBD05A
:101C00002C46E7E701232371F8E700BF8833001073
:101C1000482C00107FB504461646084601B122B193
:101C200080232360204604B070BD0B78012BF7D1D0
:101C300002A9FFF7ECFB042808BF102301AD14BF75
:101C40000196019395E8070084E80700EAE70000A1
:101C500038B504461546EFF3108010B9EFF3058050
:101C600028B12A462046FFF7D5FF204638BD084652
:101C70001146DFF80CC000DF84E80700F5E700003C
:101C8000311B00007FB50A4C4FF0FF32216803A8DA
:101C9000FFF7DEFF039B102BF6D1049901A8FFF795
:101CA000F7FD019B002BEFD002989847ECE700BFAF
:101CB000482C0010054B586002234370044B1B68EE
:101CC0001BB11B690BB1C06B184770478C330010F8
:101CD0007433001008B50348FFF71CF9BDE808404D
:101CE000FFF7E8BF4033001070B5044618B9BDE8EF
:101CF0007040FFF7EFBF0B4EA27830680125837864
:101D00009A4208D9FFF718F9336820465D70BDE89C
:101D10007040FFF7CFBF65702146BDE870400248B4
:101D2000FFF7E0B88C3300104033001038B50D4693
:101D3000014680B14FF6FF739842074C02D02068ED
:101D4000FFF704F9236805485D70FFF7E3F8BDE885
:101D50003840FFF7AFBF38BD8C3300104033001060
:101D6000024B186800B1C078704700BF8C33001078
:101D700010B5A8B9194B1B68997083F8241018483E
:101D800043689B788B4201D8002010BD134C21681A
:101D9000FFF7A8F8012223685A70FFF79BFFF3E7CB
:101DA000104B1B88984217D80F4B013853F820402E
:101DB00094B10A4BA1701B6884F824109C42DED0B9
:101DC0002046FFF735F96378012BDDD10448FFF792
:101DD000A1F8FFF789FFD7E7FF2010BD8C33001073
:101DE000403300108CA30000882B00102DE9F04731
:101DF0000D4611F0FF0F8046234816469A4608BF4D
:101E00000135FFF775FA044620B94FF0000948463E
:101E1000BDE8F08700211D4B06631B88280A1C4E75
:101E2000A0628B4201F10109EFD006EB890252F862
:101E3000042C0F464946002AF3D10123EDB284F861
:101E40000390C4F81CA0C4F838A022706370A57079
:101E500084F824506260A260E26022612262A28261
:101E6000E2822283628384F8252018B90948FFF7AB
:101E70003FFA206320464146FFF7C4F9204646F862
:101E80002740FFF731FFC2E7702F00108CA300003E
:101E9000882B0010782900102DE9F84F4D4D18B10E
:101EA0002B68DB78984241D100232C6801276370AE
:101EB00001F0A5FFE062FFF793F92B68DFF82881B6
:101EC0001C6AA4B92A684449D3784448013B41F8C4
:101ED0002340116BFFF719FA296841480C63FFF79B
:101EE00014FA2C60FFF7F6FE2046BDE8F88F636811
:101EF000B3B12046FFF70EF806460021FFF7CCF9F4
:101F00003046FFF7ADF8777031464046FEF7EAFFFE
:101F1000E368326A6780A660E26034621C46D0E7FC
:101F2000E2686380A360E3601446CAE72D4B1B8818
:101F300098424DD8284B471E53F827609946002EEB
:101F400046D04FF0010A3046FFF75CF83046FFF705
:101F500087F8DFF894B0346AB4B9316B1F4849F898
:101F60002740FFF7D2F9314634631D48FFF7CDF91A
:101F70001D48296843689A788B789A42B4D901231E
:101F80004B70FEF7AFFFADE76368DBB12046FEF7AD
:101F9000C1FF80460021FFF77FF94046FFF760F858
:101FA00088F801A041465846FEF79CFFE368D8F840
:101FB0002020A4F802A0C4F80880E260C8F82040FD
:101FC0001C46C9E7E2686380A360E3601446C3E788
:101FD000FF2489E78C330010882B0010782900102B
:101FE000702F00108CA300004033001038B52C4B2C
:101FF0002C491A880023184693424DD32A4B40227D
:1020000019882A48FFF74FF9294B2A481A882A4B82
:1020100042F000421968FFF746F9284B0822198858
:10202000274B284C1868FFF73EF9FF230025E37083
:10203000012320486370A5622570A57084F82450A0
:102040006560A560E56025612562A582E58225833E
:10205000658384F82550FFF74BF91B492063204620
:10206000FFF7D0F80422194B20461A705D60184B18
:102070001A70DD601D619D82164B1C600223637027
:10208000FFF718FE144A154B12781D705D70DA7058
:10209000BDE83840FFF780BA41F823000133ABE7D1
:1020A0008CA30000882B001058A30000702F001094
:1020B000A8A300007829001054A300005AA3000030
:1020C000A416001094330010450E00004033001099
:1020D000583300108C33001089A30000C42B00106B
:1020E00008B51E4B1A6842F47F021A601B681B0277
:1020F00003F07F43DB43B3FA83F3194ADBB2126880
:10210000C3F10803C2F30222934298BF531C6FF03D
:102110008072144802FA03F3016803F07F4321F050
:102120007F4213430360FFF723F80F4B002818602A
:1021300012DBFF22012100F1604000F564400270D3
:102140001A6853099B0003F1604302F01F0203F574
:10215000614301FA02F21A6008BD00BF20ED00E001
:102160000CED00E01CED00E0703300100323037061
:102170000023438043608360C3607047F8B54388A1
:1021800004469BB18068036A9C4228D1E3680362DD
:1021900090F82430026A52BB82789A4206D083704B
:1021A0001F4B1B68984201D0FEF742FF01261D4FCE
:1021B000656825BB1B4843686BB1194E9A78316836
:1021C0008B789A4207D9FEF78DFE012233682846A4
:1021D0005A70FFF789FD00202070F8BD1346002BD0
:1021E000D6D0DA689442F9D1E268DA60D0E7516873
:1021F00019B189788B4238BF0B46D268CBE72046AD
:10220000FEF788FE05460021FFF746F82846FEF750
:1022100027FF6E7029463846FEF764FEC8E700BF08
:102220008C330010403300102DE9F84343880546F5
:10223000002B63D0324F81683A6891425ED1013BF6
:102240009BB243801BB100242046BDE8F8830B6A93
:10225000984229D1C3680B6291F824300C6A5CBBA8
:102260008B706A68DFF89C80002A3BD02846FEF716
:1022700051FE06464FF001092146FFF70DF83046A2
:10228000FEF7EEFE336A3968EB60D8F80430A5F843
:102290000290AE6035628A789B789A4214D33046B9
:1022A000FFF722FDD0E71346002BD5D0DA68954220
:1022B000F9D1EA68DA60CFE762681AB1927893429E
:1022C00038BF1346E468CAE74046FEF70BFE3146C6
:1022D0004046FEF707FE3B6883F8019086F80190C0
:1022E0002046DDE7D8F8042092789A42ABD94046E0
:1022F000FEF7F8FD01223B685A70F1E7FF24A3E7DF
:102300008C33001040330010438870B504460E46ED
:10231000134D43B92A68116A8260C16010620133AB
:102320006380002070BD80682A689042F7D081B138
:10233000937882789A4202D28370FEF779FE6268BF
:102340004AB129682046FEF7CDFD09213046FFF746
:10235000EDFC012070BD2B6863605A609C60F4E75F
:102360008C3300100321FFF7E1BC0000426810B578
:102370007AB1FEF7CFFD0446FEF772FE012120463A
:102380006170FEF789FF2146BDE810400348FEF763
:10239000A9BD42880132428010BD00BF4033001009
:1023A00010B50021044600F079FD012004F01F045F
:1023B000A04010BD38B505464B1C0C4629600FD017
:1023C0000846FFF7EDFF24F01F0404F11803EB604B
:1023D00004F11C032B6104F1140368606B61AC60B1
:1023E00038BD006800F073BD11B1012907D07047F6
:1023F00082684168136823EA0103136070478268AA
:10240000416813680B43F8E708B5FEF789FC002222
:10241000044BC3F8C020044A136923F0040313617A
:1024200030BF08BD00C00F4000ED00E0012810B42F
:1024300008D0022808D010BC7047506820F0010076
:10244000506010E003460EE038230F4803FB010301
:102450005868013006D018699C68046093F83630DB
:10246000002BEAD000233822514307484218405835
:102470000028E0D01BB992F83620002ADBD0034AAE
:102480001946126810BC10472027001018270010AA
:10249000034A00219068C0F34200FFF7C7BF00BFA6
:1024A00000C00040034A01219068C0F34200FFF7DA
:1024B000BDBF00BF00000140034A02219068C0F385
:1024C0004200FFF7B3BF00BF00800940034A032169
:1024D0009068C0F34200FFF7A9BF00BF00C00940E9
:1024E00070B50B46066829498E4222D006DCA1F55C
:1024F00080418E420CD000210C460BE024498E42D4
:102500001AD001F580418E42F5D12249082401E01C
:10251000052421499AB10125726805FA03F3134392
:102520007360204600F000FD1C4B05FA04F41C60AB
:1025300070BD1B490624EDE71A490724EAE7012B81
:102540000AD042683820184900FB021292F836106F
:1025500092F83520D14217D1012202FA03F0B3FAE2
:1025600083F371685B0921EA00017160716802FA06
:1025700003F30B4208D1094B02FA04F4C3F880407C
:10258000BFF34F8FBFF36F8F70BD00BF00000140DE
:1025900000800940CD2400009124000000E100E00B
:1025A000A5240000B9240000202700102DE9F04FD9
:1025B000644B046887B09C4200F08D806ADCA3F510
:1025C00080439C4279D0604B0801D3F800C0BCFB2B
:1025D000F0F293B200FB12C2002A00F0AA8001259B
:1025E000E6469946AB464FF0000A0191039100265A
:1025F0004FEA4E030493DDF804804FEA8E03EFB2F6
:102600000593F3B20093049B002BABBF059BB3FB78
:10261000F8F3B3FBF8F31B09A8BF5B090133C3F35D
:102620004F03002B00F0888016B1012B08BF022356
:10263000A8195843C000BEFBF0F00130C1EB5000B8
:102640000028B8BF40420290029A0398824262DAA0
:1026500091425AD10F2D07D1BB469946DDF800A013
:102660005F464B46CDF800A0217B41F080012173ED
:10267000C3F30721DBB221712370009B43EA0712E9
:10268000D2B284F82820237B03F07F03237307B0A2
:10269000BDE8F08F2D4B9C4229D003F580439C422E
:1026A00091D12B4BD3F8AC2122F44022C3F8AC21BA
:1026B000D3F8AC2142F4802224E0254BD3F8A821A2
:1026C00022F0C002C3F8A821D3F8A82142F04002AA
:1026D000C3F8A82177E71E4BD3F8A82122F4407253
:1026E000C3F8A821D3F8A82142F48072F0E7184B70
:1026F000D3F8AC2122F44032C3F8AC21D3F8AC219A
:1027000042F48032C3F8AC215DE7BB469946029A99
:10271000DDF800A003920136F3B2BB428844FFF417
:1027200070AF0F2D9CD0019B01350B44E644019303
:102730005DE70127009297E7002E0CBF01230223DB
:1027400076E700BF0000014034010010008009401E
:1027500000C00F40034B1960382341684B430249C6
:10276000CA507047182700102027001010B50268C3
:10277000137DDB07FCD5382443680848117804FB37
:1027800003035868C9B2013006D058699B680360DA
:10279000536843F001035360084610BD2027001022
:1027A0003821114A436801FB0323DA69013209D059
:1027B0001A6B1B6A12681A4214D10368187DC0F3A1
:1027C000801070470268127D920604D50022012015
:1027D00083F83420704793F834000F288CBF002012
:1027E00001207047002070472027001038B50446AC
:1027F0000D462046FFF7D4FF0028FAD03821236881
:10280000EDB21D706368044A01FB032393F8342082
:10281000013283F8342038BD202700102DE9F84F0D
:102820009A463C4C03680546A34218BF00248946DB
:10283000904647681CB1237C03F03F032374382380
:102840004FF0FF32344E284603FB0763DA615A60CB
:10285000002283F835201146FFF742FEB9F1000F40
:1028600055D02E494046FEF701FA2D498346504681
:10287000FEF7FCF9A9F10203012B1BD8BAF1FF3FC7
:102880000BD0244B98420DD164B1237C244943F0F2
:10289000800323745046FEF7BBF9B9F1030F0CD047
:1028A000BDE8F88F382000FB076051461C30FEF76A
:1028B0001EF9F2E7B9F1010F29D1B8F1FF3F01D1BB
:1028C000BDE8F88F07222B681A72124B9B450AD17C
:1028D0004CB1237C404643F0400323740F49BDE8CC
:1028E000F84FFEF795B9382404FB076041460022F3
:1028F0000430FEF7FFF801226B68284604FB0366EC
:1029000086F835200021BDE8F84FFFF7E9BDBDE8A6
:10291000F88F00BF0000014020270010ECA300004A
:10292000C8A300002DE9F0410F4605464649384648
:102930001646FEF7A7F9454904463046FEF7A2F9C8
:1029400001462046FEF780F9414B04469842286034
:102950005DD047D8A3F58043984250D001234FF073
:10296000000823724FF416512846C4F80480FFF77C
:102970001DFE03222B6834491A733846FEF748F9C6
:1029800032493046FEF744F97A1C03D041463846B6
:1029900000F09DFA731C03D00021304600F097FA36
:1029A0002B4B9C424BD03ED8A3F580439C4243D056
:1029B00038216A68274B284601FB02324FF0FF336B
:1029C00000215360D3611A46FFF728FF224B9C4237
:1029D00006D10122214B69681A602868204B03C385
:1029E000BDE8F0811F4B984217D003F58043984211
:1029F000B4D11D4AD2F8C43043F0007304E01A4A3F
:102A0000D2F8C43043F00803C2F8C430A6E7164A2F
:102A1000D2F8C43043F01003F6E7134AD2F8C430BA
:102A200043F08073F0E70F4B9C420AD003F58043DC
:102A30009C42BDD1032300E000236B60B8E7012373
:102A4000FBE70223F9E700BF7CA4000010A400000C
:102A5000000001402027001000C000401C2700108B
:102A6000D83300100080094000C00F4008B5104B5B
:102A70001868E0B901210F4A1960D2F8C43043F454
:102A80000003C2F8C430A2F5D022106702200A4B1E
:102A90001B6850600948B3FBF0F3013BD36004208E
:102AA0005160074900F040FA1022064B1A6008BD39
:102AB0000028001000C00F403401001000093D0044
:102AC000250B000000E100E008B5044B1B680BB9C2
:102AD000FFF7CCFF024B986808BD00BF002800102C
:102AE00000400940034B98615A6942F001025A6163
:102AF000704700BF00400940024A536923F00103B8
:102B000053617047004009400122014B1A60704731
:102B1000004009400168054B0A68120701D50020F2
:102B20007047013BF8D14FF0FF307047A18601009C
:102B30003421036810B51A689961120748BF08224A
:102B40004FF024010446196048BF9A61FFF7E2FF85
:102B50002022236858689A6110BD00001022036883
:102B60001A6008229A61054A186810F0100000D116
:102B70007047013AF8D10120704700BFA1860100DB
:102B8000044B49001B689B08B3FBF1F103685961D2
:102B90001961704734010010F8B50E46044620490B
:102BA00030461546FEF76EF81E4907462846FEF7E2
:102BB00069F801463846FEF747F81B4B20609842FB
:102BC00021D003F58823984223D0A3F5042398420B
:102BD00006D1164AD2F8C43043F08003C2F8C4309C
:102BE00020461349FFF7CCFF3C22236830469A6108
:102BF00040220B491A60FEF70BF82846BDE8F84062
:102C00000849FEF705B8094AD2F8C43043F4002356
:102C1000E4E7064AD2F8C43043F08063DEE700BF41
:102C200024A50000E8A4000000C0054000C00F403B
:102C3000A08601002DE9F04E04460E4691461D4641
:102C4000FFF776FF102809D0082807D02046FFF7A5
:102C500085FF6FF001052846BDE8F08E0827236840
:102C600046F001069E6020469F61FFF753FF2368F0
:102C70005B68402B17D100264FF0040B05F1FF3A9B
:102C80005645236815DBC3F818B020469F61FFF74F
:102C900041FF23689A685B68582B1ED02046FFF7D7
:102CA0005DFF5546D7E72046FFF758FF4FF0FF3549
:102CB000D1E7C3F800B020469F61FFF72BFF2368E0
:102CC0009A685B68502B04D02046FFF747FF3546D3
:102CD000C1E709F806200136D2E7089B09F806206B
:102CE000002BB8D02046FFF739FFB4E72DE9F843B1
:102CF000089F04460E4691461D46FFF719FF10280F
:102D000009D0082807D02046FFF728FF6FF00105FB
:102D10002846BDE8F8834FF00808236806F0FE0651
:102D20009E602046C3F81880FFF7F4FE23685B68B6
:102D3000182B08D10026AE420BDB002FE8D020462E
:102D4000FFF70CFFE4E72046FFF708FF4FF0FF35E1
:102D5000DEE7236819F8062020469A60C3F8188039
:102D6000FFF7D8FE23685B68282B04D02046FFF7C6
:102D7000F5FE3546CCE70136DDE7000070B50D46BF
:102D800006460021284601F079FDE8B94FF07E5152
:102D9000284601F091FD08B14FF07E550B4CA0691B
:102DA00001F076FB294601F0CBFB01F0B5FDA369EC
:102DB00031799842336808BF013018600123226DD1
:102DC0008B401343236570BD0025E7E70080014079
:102DD0000B4B10B51A680B4B4A43022159609A619C
:102DE000996931B1006801689C695143B1FBF4F104
:102DF00001601A6D42F001021A6509225A6010BD85
:102E0000042800100080014070B50D461D4E044698
:102E100031462846FDF736FF1B4B2071C0B253F8F0
:102E200020302360194BD3F8C42042F04002C3F88D
:102E3000C420D3F8A82122F44052C3F8A8210022CC
:102E4000A3F56423DA6002225A6100F1080201202E
:102E5000D96C90400843D8640D4B0E4A1B6820463D
:102E6000B3FBF2F30C4A44F620611360FFF7B0FFA6
:102E700020460021FFF782FF31462846BDE870401A
:102E8000FDF7C6BE60A500001801001000C00F408D
:102E90003401001000093D000428001010B503247F
:102EA00000F16040A0F51C2043000009800000F103
:102EB000804000F53030026803F01E039C4022EA97
:102EC00004020260026899401143016010BD00F1E4
:102ED0006040A0F51C2043099B0003F1804303F5EB
:102EE000303330B500F01F029C6EC1F3800505FA47
:102EF00002F224EA02049C669C6E22439A6695B90B
:102F0000032443000009800000F1804000F53030C8
:102F1000026C03F01E039C4022EA04020264026C6D
:102F200099401143016430BD30B50C4CA268A468CF
:102F30001346B4F1805F0CD2131F094C094A53F8B1
:102F4000045F42F8045FA242F9D14FF08053034A74
:102F50009360103043F8201030BD00BF00ED00E05A
:102F6000C0000010FCFFFF0F2022264BC3F8A02159
:102F7000D3F8A021920603D5D3F8A0215006FBD5A3
:102F80000222C3F8042100220120C3F8A821C3F8BB
:102F9000AC210B22C3F80C01AA21C3F884205522CE
:102FA000C3F88C10C3F88C20C3F88000C3F88C10D1
:102FB000C3F88C20134B1A46D3F888104901FBD56F
:102FC0000321C3F88010AA21C3F88C105521C3F83F
:102FD0008C10D2F8883013F0407FFAD00523C2F865
:102FE0000831094BC2F8C4300023C2F8C831136855
:102FF00023F4704323F03A0343F4405343F03A037D
:103000001360704700C00F40DE87280400F04BBB00
:10301000A0F13000FFF7FABF00F048BBA0F130008C
:10302000FFF7FABF4FF0FF31443000F0D7BEA0F1F8
:103030003000FFF7F7BF443000F0D3BEA0F13000FE
:10304000FFF7F9BF38B504461D46049B00F036FB78
:10305000294604F1300000F0CDF9064B04F144009C
:1030600003F1080228332260236300F09FFE20460C
:1030700038BD00BF14A6000010B50446436941687E
:10308000194400F071FB636A04F118001B68BDE885
:103090001040184738B504460D46FDF757FE204648
:1030A00000F068FB65612069FDF7AFFD2918204637
:1030B00000F05AFBBDE83840FDF75EBE7FB506461E
:1030C0006D46FDF743FE304600F054FB002306F149
:1030D0001804AC4203930BD02046FDF705F93CB130
:1030E000039B1BB15B68694620469847039B73624C
:1030F0002846FDF7F9F8FDF73FFE04B070BD007BF0
:1031000070470000036870B5044683B9094D4FF05D
:10311000FF312868FEF72EFC23682BB9261D02D04C
:10312000304600F043FE26602868FEF74BFC20681E
:1031300070BD00BF4C2C001038B50E4B0446036028
:1031400000230D464360A16002730B48FFF7DAFFCE
:103150004FF0FF3100F042FE55B1084B1A681C6079
:1031600062600548FFF7CEFF00F03BFE204638BD09
:103170006560F6E7A0A600000C28001008280010E3
:1031800010B50446114B03601148FFF7BBFF4FF029
:10319000FF3100F023FEA3682BB10E4A13689C4256
:1031A0000ED1636813600A48FFF7ACFF00F019FE08
:1031B000237B13B9204600F015FD204610BD1346B1
:1031C0005A689442FBD162685A60ECE7A0A60000FE
:1031D0000C2800100828001010B50446FFF7D0FF97
:1031E000204600F0FCFC204610BD0000F8B5074664
:1031F00010480E46FFF786FF4FF0FF3100F0EEFD5E
:103200000D4B1C6864B1A5688DB13246394628461D
:1032100003F0B3FA58B9284603F0A7FA864206D15C
:103220000448FFF76FFF00F0DCFD2046F8BD64683E
:10323000E8E700BF0C2800100828001070B504460D
:103240000546094B00F1440644F8043B54F8040BCE
:1032500008B100F0C4FCB442F8D105F1480000F018
:10326000C3FD284670BD00BFB0A6000010B50446DF
:10327000FFF7E4FF204600F0B2FC204610BD4FF0FF
:10328000FF31483000F0AABD483000F0AABD000070
:103290002DE9F0411C46274B90B0054640F8483BCD
:1032A0000F46164600F082FD02940024169B0097FC
:1032B0000393179B01960493189B6C640593199BC9
:1032C0002F1D06931A9B07931B9B08931C9B099326
:1032D0001D9B0A931E9B0B931F9B0C93209B0D938E
:1032E000219B0E93229B0F935DF82480B8F1FF3F42
:1032F0001DD0182000F05AFC06460021182201F0CB
:10330000C0FE41463046FDF705FCB8F1FF3F47F8E7
:10331000046B05D0012303FA04F26B6C13436B6456
:103320000134102CE0D1284610B0BDE8F081002611
:10333000EBE700BFB0A6000070B5044654F8043BAC
:1033400005469B680E469847002354F8042B42B16B
:1033500046FA03F111F0010F506814BFD2681269E8
:1033600010600133102BF0D12B682846BDE8704067
:10337000DB68184710B50446FFF7DEFF204610BD96
:10338000F8B50E46036804469B6B8F183546984780
:10339000BD4207D0236815F8011B1B6C20469847D7
:1033A0000130F5D123682046DB6B9847A81BF8BD98
:1033B000F8B50E46036804469B6B8F183546984750
:1033C000BD4208D0236820465B6C9847431C02D05E
:1033D00005F8010BF4E723682046DB6B9847A81B30
:1033E000F8BD0020704700207047704700207047EC
:1033F000002070471FB504460022FFF79DFE094BD1
:103400002246236000230849236101A803F010F934
:10341000064901A801F0B2FC206100F0BCFB204687
:1034200004B010BD18A7000008A700000CA70000FA
:1034300010B50446054B0360006901F0E5FA044B42
:1034400020462360FFF79CFE204610BD18A7000011
:10345000C8A600000EB477B50446036807AD55F85A
:10346000046B9B6B98472069019501F087FB019ADB
:103470003146206902F02AF8054623682046DB6BB6
:103480009847284603B0BDE8704003B070478842B3
:1034900038B504460D460AD0FCF726FF3CB1EB6870
:1034A0001BB15B68294620469847EB68E3602046DD
:1034B00038BD000070B50D4C23687BB90C4D4FF042
:1034C000FF312868FEF756FA236823B9261D3046D7
:1034D00000F06CFC26602868FEF774FA20684FF054
:1034E000FF31BDE8704000F079BC00BF2828001013
:1034F0004C2C001070B50C4C23687BB90B4D4FF071
:10350000FF312868FEF736FA236823B9261D3046B6
:1035100000F04CFC26602868FEF754FA2068BDE8ED
:10352000704000F05EBC00BF282800104C2C00103A
:10353000074B10B50360002304464360054B04307D
:103540004360FFF729FB044B20461C6010BD00BF01
:1035500068A70000A08601004428001070B504464A
:103560000368084D1B6898472B689C4204D0A168EB
:10357000201DFFF705FB2C6023682046BDE8704046
:103580005B68184744280010F7B504460E461746F6
:103590001D4603681B6898472046FFF7DFFF9DF82C
:1035A0002030314683F0010300933A462B46201D1C
:1035B000FFF79CFB0646236820465B689847A81BDC
:1035C00018BF012003B0F0BDF7B504460E461746FC
:1035D0001D4603681B6898472046FFF7BFFF9DF80C
:1035E0002030314683F0010300933A462B46201DDC
:1035F000FFF720FB0646236820465B689847A81B18
:1036000018BF012003B0F0BD002310B50360436074
:103610000A7804462F2A0DD14A785AB1481C194617
:10362000206023681A782F2A06D101332360FFF720
:10363000DDFD6060204610BD002AF8D00133013165
:103640002360EEE700687047406808B520B1FFF7D7
:1036500056FD431E5842584108BD10B50446FFF7B9
:10366000F3FF00B1606810BD406808B520B1FFF7F6
:1036700046FDB0FA80F0400908BD10B50446FFF7DA
:10368000F3FF00B1606810BD4068003018BF012032
:10369000704770477047704700EB0112936902F161
:1036A0000C001B6818470430FFF760B810B50C46D3
:1036B0000430FFF79BF8204610BD00002DE9FF41C4
:1036C0000F46002104469046174A184E184DC36213
:1036D0000260416081608161816269460C300395BE
:1036E0000096FFF7D4FE6846FCF7FEFD694604F13C
:1036F0001C0003950096251DFFF7C9FE6846FCF7E0
:10370000F3FD424639462846FFF70CF9E16A2846A0
:10371000FEF74CFF284622460649FFF71BF82046D5
:1037200004B0BDE8F08100BF80A700009336000020
:1037300070A200009936000003689B6818470000DB
:10374000074B10B50360002343608360C3600446E9
:10375000FDF7E4F903492061FDF7EAF9204610BDC1
:1037600098A700003937000003460A46011D00698A
:10377000FDF70ABA011D0069FDF727BA10B5044626
:10378000024B0360FFF7F6FF204610BD98A700002C
:1037900010B50446006930B1036861695B6A9847F7
:1037A0000023236110BD6FF0150010BD30B4044636
:1037B000006903689D6A1346AC460A46616930BCDD
:1037C000604730B4044600690368DD6A1346AC46BE
:1037D0000A46616930BC6047036941691A68184646
:1037E000126B1047036941691A681846526B1047FB
:1037F00030B40446006903689D6B1346AC460A4624
:10380000616930BC6047036941691A681846D26B28
:103810001047036941691A681846126C104703691A
:1038200041691A681846526C104770B50D46016917
:10383000044641B929680E6A00F114012846B047D0
:1038400018B9256170BD6FF0150070BD074B10B53C
:103850000360036904460BB1FFF79AFF044B20464F
:103860002360FFF78DFC204610BD00BFACA7000011
:10387000C8A6000010B50446FFF7E8FF204600F098
:10388000AEF9204610BD0000002210B504461146D6
:10389000FFF752FC034B2046236000232361636142
:1038A00010BD00BFACA7000001F04EBC01F0AABCE7
:1038B00001F0FEBB01F0EDBB70B505464FF47A7424
:1038C000FFF702F995FBF4F4002C064602DDFDF744
:1038D00036FA28B9FFF7F8F8801BA842FAD370BD72
:1038E000204600F061FAF5E708B5044900F028FE2B
:1038F00000F0ECFFBDE80840FFF7DEBF002474498C
:103900004FF47A735843FFF7D7BF0000034B10B54D
:1039100003600446FFF79AFF204610BDF8A7000099
:1039200008B5084B1B685BB907490848084AFEF709
:10393000F9FF4FF41651BDE808400448FEF736BEC3
:1039400008BD00BF1C27001002C00920D83300109A
:1039500003C0092070470000022810B5044601DCAE
:10396000002010BD00F0F8FF092300220360094B7E
:10397000033C53F8240043F8242040B103681B693A
:103980009847041EECDA00F0E7FF644204604FF051
:10399000FF3010BD48280010F8B505460E46144605
:1039A00000F0DAFF0923022D03600FDC124B1B68C5
:1039B0000BB9FFF7B5FF35463719104EBD4215D08C
:1039C00015F8011B3046FEF711FFF7E70C4B033DDE
:1039D00053F8250060B103682246DB6831469847FA
:1039E000041E03DA00F0B8FF634203602046F8BD0E
:1039F0004FF0FF34FAE700BF1C270010D833001047
:103A00004828001070B504460D46164600F0A4FF85
:103A10000923022C03600BDC0F4B1B680BB9FFF76B
:103A20007FFF0E48FEF7A2FE01242870204670BDDD
:103A30000B4B033C53F8240058B1036832469B6893
:103A400029469847041EF1DA00F086FF63420360BE
:103A5000ECE74FF0FF34E9E71C270010D8330010E3
:103A60004828001010B5044600F076FF0923022C08
:103A7000036010DD0A4B033C53F8240040B1036897
:103A80009B699847041E08DA00F066FF64420460F0
:103A90004FF0FF3010BD012010BD002010BD00BF51
:103AA0004828001070B504460D46164600F054FF35
:103AB0000923022C03600BDD084B033C53F8240060
:103AC00040B1036832462946BDE87040DB691847BB
:103AD000002070BD4FF0FF3070BD00BF48280010BF
:103AE000022808B504DC4FF4005300204B6008BDE9
:103AF00000F032FF092303604FF0FF3008BD08B526
:103B0000FFF728FFFDF7D2F908BD704708B5FFF7AA
:103B1000FCFFBDE80840FCF74BBE00000C4A10B5A6
:103B200013681844EFF30881884205D30C22094B2F
:103B30004FF0FF301A6010BD07490C6824B10749E7
:103B4000096821448842F1D21060184610BD00BFB8
:103B500038010010E03300106429001068290010BB
:103B6000094C08B523680546986801F007F82368F2
:103B7000D86801F003F8FDF7D1F808B1FDF710F9A6
:103B80000DB1FDF78FF8FEE73C01001001207047F2
:103B900008B5FFF7E5FF002102F08FBC08B5FDF77F
:103BA00093F908BD08B5FDF797F908BD10B501F008
:103BB00025FA044610B90248FDF711F9204610BD58
:103BC0003CA8000008B101F021BA704710B50446C6
:103BD000FFF79CFE2046FFF7F5FF204610BDFFF7DC
:103BE000F1BF000010B504460C48FFF78BFA4FF008
:103BF000FF3100F0F3F800231946094A52F8230078
:103C0000A04208BF42F823100133402BF6D10348ED
:103C1000FFF778FABDE8104000F0E3B8482900103B
:103C2000482800102DE9F34789464E49064602F020
:103C300092FD044628B9FFF773FE204602B0BDE8A6
:103C4000F0874949304602F086FD18B9FFF768FE53
:103C50000124F2E74549304602F07DFD18B9FFF72F
:103C60005FFE0224E9E700F077FE0923404F03607E
:103C70004048FFF747FA4FF0FF3100F0AFF800245B
:103C8000B84657F82450002D54D00134402CF8D1B8
:103C900000F062FE182303603648FFF733FA00F0A5
:103CA000A0F80DE031466846FFF7AEFC6846FFF726
:103CB000EBFC40B947F8240000F04EFE02230360FD
:103CC0004FF0FF34B9E76846FFF7CEFC20B16846F5
:103CD000FFF7D3FC05463FE06846FFF7BEFC82468F
:103CE00030B900F039FE0223036047F824A0E7E76B
:103CF0001820FFF75BFF0646FFF7C6FD1E4B684620
:103D00003360FFF79FFC29F480330246514630466A
:103D1000FFF78BFD071E0BDA00F01EFE7F420760E7
:103D20001EB1336830465B68984748F82450C7E7AF
:103D3000354611E04FF0FF330E4847F82430FFF7C7
:103D4000E1F900F04EF833783A2BABD16A460B49D3
:103D5000304602F091FC009D002DE6D048F824503A
:103D600003346AE761A8000068A8000059A80000B1
:103D70004828001048290010F8A7000008A70000F4
:103D800038B50446FFF704FD05461CB123682046FC
:103D90005B689847284638BD024B1B6803B118473B
:103DA000704700BF6C290010FDF754BD38B50446BC
:103DB00000F1080510220021284601F062F9204692
:103DC00040F8045FFDF7B8FD206010B90248FDF728
:103DD00006F8204638BD00BF70A800000068FDF757
:103DE000C9BD0068FDF7EEBD10B504460068FDF7DB
:103DF0002FFE204610BD000080F309887047EFF3C6
:103E000009807047684680F309883F480078C007FA
:103E100014BF0220032080F314887047DFF8ECC041
:103E2000EFF305831B0618BF6047EFF31483DB072E
:103E300008BF604700DF7047DFF8D4C0EFF30583A9
:103E40001B0618BF6047EFF31483DB0708BF60470A
:103E500000DF7047EFF30980816911F8021CF1B9A6
:103E600090E80F10E047EFF3098C8CE80700294B2E
:103E700093E8060091420FD039B12CE9F00FC1F858
:103E80002CC00CB4FDF7ACF90CBC1A60D2F82CC0F5
:103E9000BCE8F00F8CF309886FF0020E704710B584
:103EA0001D4A1268914209D81C4C54F8214090E8F0
:103EB0000F10A047EFF3098C8CE80F0010BDFDF741
:103EC0001BF9144B93E80600914210D0EFF3098CD4
:103ED0002CE9F00FC1F82CC00CB4FDF781F90CBC33
:103EE0001A60D2F82CC0BCE8F00F8CF309886FF090
:103EF000020E7047FDF756F9FFF7E3BFFDF750F9E3
:103F0000FDF750F9FFF7DDBF8AA30000F1120000B2
:103F10000B1300008C33001000000000FCFFFFFFBB
:103F20000649074A074B9A42BEBF51F8040B42F8B4
:103F3000040BF8E70448804704480047E4AB00005E
:103F4000C800001020030010692F0000610A000063
:103F5000FEE7FEE7FEE7FEE7FEE7FEE7FEE7FEE739
:103F6000FEE7FEE781F0004102E000BF83F000437E
:103F700030B54FEA41044FEA430594EA050F08BF04
:103F800090EA020F1FBF54EA000C55EA020C7FEAC8
:103F9000645C7FEA655C00F0E2804FEA5454D4EB45
:103FA0005555B8BF6D420CDD2C4480EA020281EA0F
:103FB000030382EA000083EA010180EA020281EA47
:103FC0000303362D88BF30BD11F0004F4FEA013199
:103FD0004FF4801C4CEA113102D0404261EB4101A8
:103FE00013F0004F4FEA03334CEA133302D052422E
:103FF00063EB430394EA050F00F0A780A4F10104EA
:10400000D5F1200E0DDB02FA0EFC22FA05F2801823
:1040100041F1000103FA0EF2801843FA05F3594109
:104020000EE0A5F120050EF1200E012A03FA0EFC88
:1040300028BF4CF0020C43FA05F3C01851EBE371B2
:1040400001F0004507D54FF0000EDCF1000C7EEBCF
:1040500000006EEB0101B1F5801F1BD3B1F5001F0D
:104060000CD349085FEA30004FEA3C0C04F101042C
:104070004FEA445212F5800F80F09A80BCF1004F55
:1040800008BF5FEA500C50F1000041EB045141EAD7
:10409000050130BD5FEA4C0C404141EB010111F4D8
:1040A000801FA4F10104E9D191F0000F04BF014683
:1040B0000020B1FA81F308BF2033A3F10B03B3F161
:1040C00020020CDA0C3208DD02F1140CC2F10C02F1
:1040D00001FA0CF021FA02F10CE002F11402D8BF4F
:1040E000C2F1200C01FA02F120FA0CFCDCBF41EA1B
:1040F0000C019040E41AA2BF01EB0451294330BDEA
:104100006FEA04041F3C1CDA0C340EDC04F11404C6
:10411000C4F1200220FA04F001FA02F340EA03009D
:1041200021FA04F345EA030130BDC4F10C04C4F1E3
:10413000200220FA02F001FA04F340EA03002946C3
:1041400030BD21FA04F0294630BD94F0000F83F40D
:10415000801306BF81F480110134013D4EE77FEAF0
:10416000645C18BF7FEA655C29D094EA050F08BF3C
:1041700090EA020F05D054EA000C04BF194610461D
:1041800030BD91EA030F1EBF0021002030BD5FEA61
:10419000545C05D14000494128BF41F0004130BD89
:1041A00014F580043CBF01F5801130BD01F00045DD
:1041B00045F0FE4141F470014FF0000030BD7FEA50
:1041C000645C1ABF194610467FEA655C1CBF0B464B
:1041D000024650EA013406BF52EA033591EA030F62
:1041E00041F4002130BD00BF90F0000F04BF00215A
:1041F000704730B54FF4806404F132044FF000058D
:104200004FF0000150E700BF90F0000F04BF002105
:10421000704730B54FF4806404F1320410F000456B
:1042200048BF40424FF000013EE700BF42004FEA66
:10423000E2014FEA31014FEA02701FBF12F07F43E3
:1042400093F07F4F81F06051704792F0000F14BFE0
:1042500093F07F4F704730B54FF4607401F0004524
:1042600021F0004120E700BF50EA010208BF70477B
:1042700030B54FF000050AE050EA010208BF704770
:1042800030B511F0004502D5404261EB41014FF4D9
:10429000806404F132045FEA915C3FF4DCAE4FF0DD
:1042A00003025FEADC0C18BF03325FEADC0C18BFC4
:1042B000033202EBDC02C2F1200300FA03FC20FA15
:1042C00002F001FA03FE40EA0E0021FA02F1144462
:1042D000C1E600BF4FEA410212F5001215D211D516
:1042E0006FF47873B3EB625212D94FEAC12343F0F3
:1042F000004343EA505311F0004F23FA02F018BF75
:10430000404270474FF00000704750EA013005D13D
:1043100011F0004008BF6FF0004070474FF0000000
:10432000704700BF80F0004002E000BF81F0004114
:1043300042001FBF5FEA410392EA030F7FEA226C4B
:104340007FEA236C6AD04FEA1262D2EB1363C1BFDB
:10435000D218414048404140B8BF5B42192B88BF4A
:10436000704710F0004F40F4000020F07F4018BF6D
:10437000404211F0004F41F4000121F07F4118BF8D
:10438000494292EA030F3FD0A2F1010241FA03FC35
:1043900010EB0C00C3F1200301FA03F100F000431D
:1043A00002D5494260EB4000B0F5000F13D3B0F1E5
:1043B000807F06D340084FEA310102F10102FE2A54
:1043C00051D2B1F1004F40EBC25008BF20F00100C4
:1043D00040EA03007047490040EB000010F4000F72
:1043E000A2F10102EDD1B0FA80FCACF1080CB2EB05
:1043F0000C0200FA0CF0AABF00EBC2505242184364
:10440000BCBFD0401843704792F0000F81F4000108
:1044100006BF80F400000132013BB5E74FEA4103DB
:104420007FEA226C18BF7FEA236C21D092EA030F47
:1044300004D092F0000F08BF0846704790EA010FC1
:104440001CBF0020704712F07F4F04D1400028BFEE
:1044500040F00040704712F100723CBF00F50000D0
:10446000704700F0004343F0FE4040F40000704706
:104470007FEA226216BF08467FEA236301464202B2
:1044800006BF5FEA412390EA010F40F480007047C5
:104490004FF0000304E000BF10F0004348BF40426B
:1044A0005FEA000C08BF704743F0964301464FF0A7
:1044B00000001CE050EA010208BF70474FF0000303
:1044C0000AE000BF50EA010208BF704711F0004344
:1044D00002D5404261EB41015FEA010C02BF844614
:1044E0000146002043F0B64308BFA3F18053A3F573
:1044F0000003BCFA8CF2083AA3EBC25310DB01FABA
:1045000002FC634400FA02FCC2F12002BCF1004F3D
:1045100020FA02F243EB020008BF20F001007047CE
:1045200002F1200201FA02FCC2F1200250EA4C0022
:1045300021FA02F243EB020008BF20EADC70704768
:104540004FF0FF0C1CEAD0521EBF1CEAD15392EA76
:104550000C0F93EA0C0F6FD01A4480EA010C400252
:1045600018BF5FEA41211ED04FF0006343EA5010AC
:1045700043EA5111A0FB01310CF00040B1F5000FEE
:104580003EBF490041EAD3715B0040EA010062F19D
:104590007F02FD2A1DD8B3F1004F40EBC25008BF87
:1045A00020F00100704790F0000F0CF0004C08BFA5
:1045B00049024CEA502040EA51207F3AC2BFD2F172
:1045C000FF0340EAC250704740F400004FF0000380
:1045D000013A5DDC12F1190FDCBF00F000407047BA
:1045E000C2F10002410021FA02F1C2F1200200FAF8
:1045F00002FC5FEA310040F1000053EA4C0308BFBF
:1046000020EADC70704792F0000F00F0004C02BF0F
:10461000400010F4000F013AF9D040EA0C0093F08A
:10462000000F01F0004C02BF490011F4000F013BE4
:10463000F9D041EA0C018FE70CEAD15392EA0C0F52
:1046400018BF93EA0C0F0AD030F0004C18BF31F0BD
:10465000004CD8D180EA010000F00040704790F093
:10466000000F17BF90F0004F084691F0000F91F037
:10467000004F14D092EA0C0F01D142020FD193EAFD
:104680000C0F03D14B0218BF084608D180EA010085
:1046900000F0004040F0FE4040F40000704740F061
:1046A000FE4040F4400070474FF0FF0C1CEAD0522F
:1046B0001EBF1CEAD15392EA0C0F93EA0C0F69D08B
:1046C000A2EB030280EA010C49024FEA402037D0F6
:1046D0004FF0805343EA111143EA10130CF00040ED
:1046E0008B4238BF5B0042F17D024FF4000C8B42DD
:1046F00024BF5B1A40EA0C00B3EB510F24BFA3EBBD
:10470000510340EA5C00B3EB910F24BFA3EB91038C
:1047100040EA9C00B3EBD10F24BFA3EBD10340EAE6
:10472000DC001B0118BF5FEA1C1CE0D1FD2A3FF62C
:1047300050AF8B4240EBC25008BF20F001007047E1
:104740000CF0004C4CEA50207F32C2BFD2F1FF0384
:1047500040EAC250704740F400004FF00003013AB5
:1047600037E792F0000F00F0004C02BF400010F459
:10477000000F013AF9D040EA0C0093F0000F01F06D
:10478000004C02BF490011F4000F013BF9D041EA8F
:104790000C0195E70CEAD15392EA0C0F08D14202C2
:1047A0007FF47DAF93EA0C0F7FF470AF084676E795
:1047B00093EA0C0F04D14B023FF44CAF08466EE76E
:1047C00030F0004C18BF31F0004CCAD130F000423C
:1047D0007FF45CAF31F000437FF43CAF5FE700BF94
:1047E0004FF0FF3C06E000BF4FF0010C02E000BFBD
:1047F0004FF0010C4DF804CD4FEA40024FEA41035F
:104800007FEA226C18BF7FEA236C11D001B052EA14
:10481000530C18BF90EA010F58BFB2EB030088BFDA
:10482000C81738BF6FEAE17018BF40F00100704749
:104830007FEA226C02D15FEA402C05D17FEA236C2B
:10484000E4D15FEA412CE1D05DF8040B704700BF72
:10485000844608466146FFE70FB5FFF7C9FF002809
:1048600048BF10F1000F0FBD4DF808EDFFF7F4FF42
:104870000CBF012000205DF808FB00BF4DF808EDDB
:10488000FFF7EAFF34BF012000205DF808FB00BFFE
:104890004DF808EDFFF7E0FF94BF012000205DF820
:1048A00008FB00BF4DF808EDFFF7D2FF94BF0120D1
:1048B00000205DF808FB00BF4DF808EDFFF7C8FFCA
:1048C00034BF012000205DF808FB00BF4FEA400222
:1048D000B2F1FE4F0FD34FF09E03B3EB12620DD92E
:1048E0004FEA002343F0004310F0004F23FA02F098
:1048F00018BF404270474FF00000704712F1610F3F
:1049000001D1420205D110F0004008BF6FF0004015
:1049100070474FF00000704742000ED2B2F1FE4FD8
:104920000BD34FF09E03B3EB126209D44FEA00237E
:1049300043F0004323FA02F070474FF00000704745
:1049400012F1610F01D1420202D14FF0FF307047E6
:104950004FF00000704700BF014B1868704700BF60
:104960003C01001070B505460C4611B900263046D2
:1049700070BD18B183690BB900F052F91F4B9C420E
:1049800032D16C68B4F90C30002BEFD021462846A8
:1049900000F042F8236B064633B1216A2846984757
:1049A0000028B8BF4FF0FF36A3891B0603D5216945
:1049B0002846FEF77DFF616B41B104F14403994243
:1049C00002D02846FEF774FF00236363A16C21B177
:1049D0002846FEF76DFF0023A36400F08DF9002345
:1049E000A38100F08AF9C2E7054B9C4201D1AC6873
:1049F000C8E7044B9C4208BFEC68C3E7B8A80000B6
:104A0000D8A8000098A80000024B01461868FFF7DC
:104A1000A9BF00BF3C0100108A892DE9F04105467D
:104A200010070C465AD44B68002B05DC0B6C002B8E
:104A300002DC0020BDE8F081E66A002EF9D00023F8
:104A400012F480522F682B6033D0606DA3895A070F
:104A500005D56368C01A636B0BB1236CC01A0023C1
:104A60000246E66A216A2846B047431CA38906D15C
:104A700029681D294BD82B4ACA40D60747D50022A2
:104A800062602269D904226004D5421C01D12B68DE
:104A900003B96065616B2F600029CAD004F144033B
:104AA000994202D02846FEF703FF00206063BDE86C
:104AB000F081216A01232846B047411CC6D12B68EA
:104AC000002BC3D01D2B01D0162B01D12F60B0E7D6
:104AD000A38943F04003A381BDE8F0810F69002F53
:104AE000A7D0930718BF00230E6808BF4B69A6EB39
:104AF00007080F608B60B8F1000F9ADD43463A4615
:104B0000216A2846A66AB047002807DCA38943F03B
:104B10004003A3814FF0FF30BDE8F0810744A8EBCC
:104B20000008E8E70100402038B50B6905460C464F
:104B3000DBB118B183690BB900F072F80C4B9C42E1
:104B400009D16C68B4F90C307BB121462846BDE828
:104B50003840FFF761BF074B9C4201D1AC68F1E7D9
:104B6000054B9C4208BFEC68ECE7002038BD00BF55
:104B7000B8A80000D8A8000098A80000014620B9F5
:104B8000044B0549186800F093B9044B1868FFF707
:104B9000CBBF00BFF8A80000294B00003C0100106B
:104BA000014900F085B900BF294B0000002310B572
:104BB000044603604360836081814366C281036170
:104BC00043618361194608225C3000F05AFA054BB4
:104BD00024626362044BA362044BE362044B2363CD
:104BE00010BD00BFCD660000F36600002B6700001B
:104BF0004F67000070B568254A1E55430E4605F103
:104C00007401FEF751FE044640B1002180E84200E5
:104C10000C30A06005F1680200F033FA204670BD48
:104C2000836910B5044633BB8364C3640365124BC8
:104C3000124A1B688262984204BF0123836100F01C
:104C40001FF86060204600F01BF8A060204600F0CE
:104C500017F80022E06004216068FFF7A7FF012237
:104C60000921A068FFF7A2FF02221221E068FFF7E6
:104C70009DFF0123A36110BDF8A80000A14B000017
:104C8000F8B51C4B07461E68B36913B93046FFF7E9
:104C9000C7FF4836B4687368013B03D5336833B146
:104CA0003668F7E7B4F90C506DB16834F4E70421C5
:104CB0003846FFF79FFF30600028F1D10C230446EF
:104CC0003B602046F8BD4FF6FF73E3810123656624
:104CD000A3812560A560656025616561A5610822E5
:104CE000294604F15C0000F0CCF96563A563A56476
:104CF000E564E6E7F8A8000070477047F7B50F468F
:104D0000114601AA054603F013FC064618B9002413
:104D1000204603B0F0BD2846FFF7B2FF0446002846
:104D2000F5D04FF4DB73019A3946284601F074FB45
:104D3000002806DA0025FFF7DFFFA581FFF7DDFF7A
:104D4000E5E70A4BE0816362094BA681A362094B48
:104D50002462E362084B2363F305D9D502230022C2
:104D60002146284600F012F8D2E700BFCD660000C9
:104D7000F36600002B6700004F670000024B0A46F5
:104D800001461868FFF7BABF3C01001000F000B8F8
:104D90002DE9F8430C4691461E46054618B1836935
:104DA0000BB9FFF73DFF3F4B9C4212D16C68A389C2
:104DB00003F48473B3F5847F03D121462846FFF7BB
:104DC000B3FED4F82C80B8F1000F0CD11D232B605A
:104DD00057E0354B9C4201D1AC68E8E7334B9C422D
:104DE00008BFEC68E3E7012E30D0022E01D0002E80
:104DF00055D123691BB92146284600F0BFF821464A
:104E00002846FFF791FE074600283AD133464A4626
:104E1000216A2846C047013033D0616B41B104F1AB
:104E20004403994202D02846FEF742FD0023636303
:104E30000021236961602360A389082223F40263AF
:104E4000A38104F15C0000F01CF91CE02146284617
:104E5000FFF76AFEA28912F480520CD0606DA3891C
:104E60005A0713D56368C01A636B0BB1236CC01A61
:104E700081440026BDE7216A33462846C047411CCD
:104E8000EDD14FF0FF373846BDE8F8831B07EFD56B
:104E90002368002BECD022699B1A1844E8E71623FC
:104EA00095E700BFB8A80000D8A8000098A80000A7
:104EB0002DE9F84380468946002600F1480414B9DC
:104EC0003046BDE8F883A5686768013F01D52468CE
:104ED000F5E7AB89012B07D9B5F90E30013303D0C3
:104EE00029464046C84706436835EEE770B50025B9
:104EF0000C4E0D4CA41BA410A54209D105F002F9DB
:104F000000250A4E0A4CA41BA410A54205D170BD71
:104F100056F8253098470135EEE756F82530984782
:104F20000135F2E70C0300100C0300100C03001015
:104F30001C03001070B50E46B1F90E1090B0002998
:104F400014461D4607DA00232B60B3891A0610D4D5
:104F50004FF480630EE001AA03F020FB0028F2DB8F
:104F6000029A02F47042A2F500535A425A412A6052
:104F7000EEE740230020236010B070BD8B8973B52D
:104F80009D0706460C4607D504F1470323602361BD
:104F90000123636102B070BD01AB6A46FFF7CAFF2F
:104FA000009905463046FEF77FFC48B9B4F90C304D
:104FB0009A05EFD423F0030343F00203A381E3E750
:104FC0000D4BB362A389206043F08003A381009B53
:104FD00020616361019B5BB1B4F90E10304603F0B0
:104FE0000DFE28B1A38923F0030343F00103A3813D
:104FF000A3891D43A581CDE7A14B0000024B0146CB
:105000001868FEF751BC00BF3C010010024B01467E
:105010001868FEF74DBC00BF3C01001010B5C9B2C6
:1050200002449042034601D1002010BD1C7801309B
:105030008C42F6D1184610BD10B5431E0A44914269
:1050400000D110BD11F8014B03F8014FF7E788427A
:1050500010B501EB020303D8421E99420CD110BDDA
:105060009842F9D28118D21AD34200D110BD13F858
:10507000014D01F8014DF7E711F8014B02F8014F1E
:10508000EBE703460244934200D1704703F8011B4B
:10509000F9E738B502FB01F42146FEF705FC0546A9
:1050A00018B122460021FFF7ECFF284638BD00006A
:1050B00038B50546002943D051F8043C0C1F002B9D
:1050C000B8BFE418FEF76AFD1E4A1368104633B9EC
:1050D000636014602846BDE83840FEF763BDA34214
:1050E0000BD921686218934201BF1A685B68521895
:1050F000226063600460EDE713465A680AB1A24279
:10510000FAD919685818A0420BD1206801445818E0
:1051100082421960DED110685268014419605A60F9
:10512000D8E702D90C232B60D4E7206821188A42E3
:1051300001BF116852680918216062605C60C9E7AC
:1051400038BD00BF7029001070B5CD1C25F00305D7
:1051500008350C2D38BF0C25002D064601DBA94271
:1051600003D90C233360002070BDFEF717FD234ADE
:105170001468214691B9224C23681BB9304601F0CE
:105180005DF920602946304601F058F9431C26D1CC
:105190000C2330463360FEF705FDE4E70B685B1B2C
:1051A0001AD40B2B0FD90B60CC18CD503046FEF71C
:1051B000F9FC04F10B00231D20F00700C31A1BD0DB
:1051C0005A42E25070BD8C420BBF63684B6813605B
:1051D000636018BF0C46E9E70C464968CAE7C41C7F
:1051E00024F00304A04205D0211A304601F026F92C
:1051F0000130CDD02560D9E770BD00BF7029001007
:1052000074290010F8B5074614460E4621B9114618
:10521000BDE8F840FEF748BB22B9FEF749FB25463A
:105220002846F8BD04F028F984420FD921463846B3
:10523000FEF73AFB05460028F2D031462246FFF73A
:10524000FBFE31463846FEF733FBE9E73546E7E734
:10525000936810B4013B002B936008DA9469A34271
:1052600002DBCBB20A2B02D110BC02F01DBA1368CC
:10527000581C10601970C8B210BC7047F8B50646CB
:105280000F461446D518AC4201D1002007E03A463B
:1052900014F8011B3046FFF7DBFF431CF3D1F8BDC8
:1052A0002DE9F04F9DB00C4617460393064618B102
:1052B00083690BB9FFF7B4FC7C4B9C4257D17468EF
:1052C000A38918075DD52369002B5AD000230993C1
:1052D00020238DF8293030234FF0010B8DF82A3030
:1052E000B846454615F8013B002B55D1B8EB070AE7
:1052F0000BD053463A4621463046FFF7BFFF0130F8
:1053000000F0C480099B5344099398F80030002BA7
:1053100000F0BC8000234FF0FF3204930793059206
:1053200006938DF853301A93052229786048FFF7C9
:1053300075FE05F10108049B002831D1D90644BF50
:1053400020228DF853201A0744BF2B228DF85320BA
:105350002A782A2A2CD000210A20079AA84698F8F1
:1053600000300135303B092B6DD971B326E0514B2C
:105370009C4201D1B468A3E74F4B9C4208BFF4683C
:105380009EE72146304602F0F3F900289ED04FF008
:10539000FF301DB0BDE8F08F252BA7D0A846A0E7B1
:1053A000434A4546801A0BFA00F018430490BBE7C5
:1053B000039A111D12680391002A01DB079204E091
:1053C000524243F002030792049398F800302E2BC8
:1053D00010D198F8013008F101012A2B37D1039B35
:1053E00008F102081A1D1B680392002BB8BF4FF08A
:1053F000FF330593314D032298F800102846FFF73C
:105400000DFE40B14023401B03FA00F0049B08F15D
:1054100001080343049398F800100622284808F175
:1054200001078DF82810FFF7F9FD002834D0254B2F
:1054300003BB039B073323F0070308330393099B44
:105440004B4409934CE700FB0232012186E700231D
:105450000A2518460593884698F800200131303A0D
:10546000092A03D9002BC5D00590C3E705FB00200E
:105470000123F0E703AB00932246134B04A9304607
:1054800000F0C0F8B0F1FF3F8146D8D1A3895B0698
:105490003FF57DAF09987CE703AB009322460A4BAA
:1054A00004A9304600F05EFBECE700BFB8A800009E
:1054B000FCA80000D8A8000098A8000002A90000DD
:1054C00006A90000055600007D52000013460A465A
:1054D000014602480068FFF7E3BE00BF3C01001030
:1054E000002B2DE9F0471E46BBBF03F100431E46CB
:1054F00000232D2388B0149F129927F02007462FF0
:105500001446109DDDF84CA00B7004D0452F00D13F
:105510000135022300E0032307AA049206AA03929E
:105520008DE828042246334602F02EFA472F8046A3
:1055300002D1119BDB0726D5462F08EB050911D1B7
:1055400098F80030302B0AD1002200232046314643
:1055500004F020FD18B9C5F10105CAF80050DAF8C9
:1055600000309944002200232046314604F012FD09
:1055700038B93022079B994505D9591C07911A70F3
:10558000F8E7CDF81C904046079B159AA3EB08035B
:10559000136008B0BDE8F0870346F7B5002903F8AB
:1055A000022BB6BF2D222B2249420929427021DD50
:1055B0000DF1070217460A2691FBF6F506FB1511B9
:1055C000092D01F1300102F8011C02F1FF342946D6
:1055D00009DC3031023A04F8011CBA421C4604D3FB
:1055E000201A03B0F0BD2246E6E712F8011B03F8CB
:1055F000011BF2E730221C46114404F8022B5970BB
:10560000EEE700002DE9F04F91B00C461A9F93464B
:105610001E46054603F016FB03681846099301F081
:10562000A4F800230E933B680A90073323F0070386
:1056300003F1080294F81880D4F800A03A60D3E986
:105640000023C4E91223D4F84C90A76C29F000433E
:105650000B934FF0FF32A64B38460B9904F0CCFC6D
:10566000002840F0F7814FF0FF32A14B38460B99EC
:1056700004F0A4FC002840F0ED810022002338460D
:10568000494604F091FC10B12D2384F84330994B26
:10569000994FB8F1470F98BF1F4603234FF00009F9
:1056A00023612AF00403236000965B460FAA21467B
:1056B000284600F0DFF9013040F09A804FF0FF30CB
:1056C00011B0BDE8F08F62680EA8531C0DF1340EC6
:1056D0004AF4806341D10622626000212360019375
:1056E00063680DF133020590029200933A464B46EF
:1056F0000691CDF81080CDF80CE02846FFF7F0FEBB
:1057000008F0DF03472B074609D10D9BD81C02DBAD
:105710006268934259DDA8F102085FFA88F8B8F18F
:10572000650F0D9936D80139424604F150000D91AC
:10573000FFF732FF0E9A81468318012A236102DCAB
:105740002268D10701D5013323619DF83330002B46
:10575000AAD02D2384F84330A6E7B8F1670F02D012
:10576000B8F1470FB9D19AB1002106910DF133017B
:105770008DE80C00236005903A46CDF81080CDF8F6
:105780000CE002914B462846FFF7AAFE0746BCE70D
:105790000122A1E7B8F1660F19D1002963680CDD79
:1057A000216113B92268D20702D501330B4423616A
:1057B0000D9B4FF00009A365C7E713B92268D00716
:1057C00001D50233F3E70123F1E74FF067080D9BA2
:1057D0000E9A934205DB22682361D107E8D5013395
:1057E000E5E7002BCCBF0123C3F102031344DEE73E
:1057F00023685A0507D423693A4659462846B047D4
:1058000001302AD15AE7B8F1650F40F2DC80D4E9C3
:1058100012010022002304F0BDFB002839D001232F
:10582000364A59462846B04701303FF447AF0E9BF1
:105830000D9A9A4202DB2368D8070ED50A9B099A73
:1058400059462846B04701303FF438AF002704F1ED
:105850001A080E9B013B9F4211DB23689F0708D566
:10586000002704F11908E3680F9A9B1A9F42C0F2BF
:10587000E780E0680F9B9842B8BF184620E70123F5
:10588000424659462846B04701303FF417AF01372A
:10589000DFE70D9B002B33DC0123184A59462846CD
:1058A000B04701303FF40AAF0D9B23B90E9B13B9EB
:1058B0002368D907D1D50A9B099A59462846B0478B
:1058C00001303FF4FBAE4FF0000804F11A090D9BC4
:1058D0005B42984501DB0E9B8EE701234A46594601
:1058E0002846B04701303FF4E9AE08F10108EEE781
:1058F000FFFFEF7F0DA9000011A9000066A90000BD
:105900000E9AA36D9A42A8BF1A46002A904636DC2A
:105910004FF0000A04F11A0328EAE8780B93D4F850
:105920005890A9EB08039A4531DB0E9B0D9A9A42D9
:1059300038DB2368DA0735D40E9B0D99A3EB0902F7
:10594000A3EB01089045A8BF9046B8F1000F31DCE9
:10595000002728EAE87804F11A090D9A0E9B9B1A91
:10596000A3EB08039F42BFF678AF01234A4659468E
:105970002846B04701303FF4A1AE0137EDE71346AA
:1059800059463A462846B0470130C1D196E6012330
:105990000B9A59462846B04701303FF48FAE0AF1C2
:1059A000010ABCE70A9B099A59462846B0470130CC
:1059B000C2D183E6434607EB090259462846B04761
:1059C0000130C5D17AE60E9A012A01DCDB0734D515
:1059D00001233A4659462846B04701303FF46EAE9F
:1059E0000A9B099A59462846B04701303FF466AEF3
:1059F000D4E912010022002304F0CCFA50B10027B0
:105A000004F11A080E9B013B9F420CDB4B4604F14C
:105A10005002F2E60E9B7A1C013B59462846B047DD
:105A20000130F3D14AE60123424659462846B047A1
:105A300001303FF443AE0137E4E701233A46ECE797
:105A40000123424659462846B04701303FF436AE5E
:105A5000013708E73A464B463846494604F0CCFA47
:105A600000283FF430AE014B014F12E615A90000AB
:105A700019A900002DE9F04791461F468A680B6975
:105A800006469342B8BF1346C9F8003091F8432048
:105A90000C46DDF8208012B10133C9F800302368CC
:105AA000990642BFD9F800300233C9F800302568A2
:105AB00015F0060507D104F1190AE368D9F80020AA
:105AC0009B1A9D422ADB94F843302268003318BFAA
:105AD000012392062FD404F1430239463046C047D1
